{"abi":[{"type":"constructor","inputs":[{"name":"_token","type":"address","internalType":"address"}],"stateMutability":"nonpayable"},{"type":"function","name":"getNonce","inputs":[],"outputs":[{"name":"","type":"uint256","internalType":"uint256"}],"stateMutability":"view"},{"type":"function","name":"isPaused","inputs":[],"outputs":[{"name":"","type":"bool","internalType":"bool"}],"stateMutability":"view"},{"type":"function","name":"lockTokens","inputs":[{"name":"amount","type":"uint256","internalType":"uint256"},{"name":"targetAddress","type":"address","internalType":"address"},{"name":"targetChainId","type":"uint256","internalType":"uint256"}],"outputs":[],"stateMutability":"nonpayable"},{"type":"function","name":"nonce","inputs":[],"outputs":[{"name":"","type":"uint256","internalType":"uint256"}],"stateMutability":"view"},{"type":"function","name":"owner","inputs":[],"outputs":[{"name":"","type":"address","internalType":"address"}],"stateMutability":"view"},{"type":"function","name":"pauseBridge","inputs":[],"outputs":[],"stateMutability":"nonpayable"},{"type":"function","name":"paused","inputs":[],"outputs":[{"name":"","type":"bool","internalType":"bool"}],"stateMutability":"view"},{"type":"function","name":"renounceOwnership","inputs":[],"outputs":[],"stateMutability":"nonpayable"},{"type":"function","name":"token","inputs":[],"outputs":[{"name":"","type":"address","internalType":"contract IERC20"}],"stateMutability":"view"},{"type":"function","name":"transferOwnership","inputs":[{"name":"newOwner","type":"address","internalType":"address"}],"outputs":[],"stateMutability":"nonpayable"},{"type":"function","name":"unpauseBridge","inputs":[],"outputs":[],"stateMutability":"nonpayable"},{"type":"event","name":"BridgePaused","inputs":[{"name":"admin","type":"address","indexed":true,"internalType":"address"}],"anonymous":false},{"type":"event","name":"BridgeUnpaused","inputs":[{"name":"admin","type":"address","indexed":true,"internalType":"address"}],"anonymous":false},{"type":"event","name":"OwnershipTransferred","inputs":[{"name":"previousOwner","type":"address","indexed":true,"internalType":"address"},{"name":"newOwner","type":"address","indexed":true,"internalType":"address"}],"anonymous":false},{"type":"event","name":"TokensLocked","inputs":[{"name":"user","type":"address","indexed":true,"internalType":"address"},{"name":"amount","type":"uint256","indexed":false,"internalType":"uint256"},{"name":"nonce","type":"uint256","indexed":true,"internalType":"uint256"},{"name":"targetAddress","type":"address","indexed":false,"internalType":"address"},{"name":"targetChainId","type":"uint256","indexed":false,"internalType":"uint256"}],"anonymous":false},{"type":"error","name":"BridgeIsPaused","inputs":[]},{"type":"error","name":"InsufficientAllowance","inputs":[]},{"type":"error","name":"InsufficientBalance","inputs":[]},{"type":"error","name":"ZeroAddress","inputs":[]},{"type":"error","name":"ZeroAmount","inputs":[]},{"type":"error","name":"ZeroChainId","inputs":[]}],"bytecode":{"object":"0x60a060405234801561000f575f5ffd5b5060405161119d38038061119d83398181016040528101906100319190610243565b60015f8190555061005461004961011b60201b60201c565b61012260201b60201c565b5f73ffffffffffffffffffffffffffffffffffffffff168173ffffffffffffffffffffffffffffffffffffffff16036100b9576040517fd92e233d00000000000000000000000000000000000000000000000000000000815260040160405180910390fd5b8073ffffffffffffffffffffffffffffffffffffffff1660808173ffffffffffffffffffffffffffffffffffffffff16815250505f60035f6101000a81548160ff0219169083151502179055506101153361012260201b60201c565b5061026e565b5f33905090565b5f60015f9054906101000a900473ffffffffffffffffffffffffffffffffffffffff1690508160015f6101000a81548173ffffffffffffffffffffffffffffffffffffffff021916908373ffffffffffffffffffffffffffffffffffffffff1602179055508173ffffffffffffffffffffffffffffffffffffffff168173ffffffffffffffffffffffffffffffffffffffff167f8be0079c531659141344cd1fd0a4f28419497f9722a3daafe3b4186f6b6457e060405160405180910390a35050565b5f5ffd5b5f73ffffffffffffffffffffffffffffffffffffffff82169050919050565b5f610212826101e9565b9050919050565b61022281610208565b811461022c575f5ffd5b50565b5f8151905061023d81610219565b92915050565b5f60208284031215610258576102576101e5565b5b5f6102658482850161022f565b91505092915050565b608051610f0261029b5f395f81816102dd015281816103ae01528181610481015261079a0152610f025ff3fe608060405234801561000f575f5ffd5b50600436106100a7575f3560e01c8063a82f143c1161006f578063a82f143c14610117578063affed0e014610121578063b187bd261461013f578063d087d2881461015d578063f2fde38b1461017b578063fc0c546a14610197576100a7565b8063154b3db0146100ab5780635c975abb146100c7578063715018a6146100e55780637dd0480f146100ef5780638da5cb5b146100f9575b5f5ffd5b6100c560048036038101906100c091906109eb565b6101b5565b005b6100cf6105d8565b6040516100dc9190610a55565b60405180910390f35b6100ed6105ea565b005b6100f76105fd565b005b610101610664565b60405161010e9190610a7d565b60405180910390f35b61011f61068c565b005b6101296106f2565b6040516101369190610aa5565b60405180910390f35b6101476106f8565b6040516101549190610a55565b60405180910390f35b61016561070d565b6040516101729190610aa5565b60405180910390f35b61019560048036038101906101909190610abe565b610716565b005b61019f610798565b6040516101ac9190610b44565b60405180910390f35b6101bd6107bc565b60035f9054906101000a900460ff1615610203576040517f7cf03c4200000000000000000000000000000000000000000000000000000000815260040160405180910390fd5b5f830361023c576040517f1f2a200500000000000000000000000000000000000000000000000000000000815260040160405180910390fd5b5f73ffffffffffffffffffffffffffffffffffffffff168273ffffffffffffffffffffffffffffffffffffffff16036102a1576040517fd92e233d00000000000000000000000000000000000000000000000000000000815260040160405180910390fd5b5f81036102da576040517fc84885d400000000000000000000000000000000000000000000000000000000815260040160405180910390fd5b827f000000000000000000000000000000000000000000000000000000000000000073ffffffffffffffffffffffffffffffffffffffff166370a08231336040518263ffffffff1660e01b81526004016103349190610a7d565b602060405180830381865afa15801561034f573d5f5f3e3d5ffd5b505050506040513d601f19601f820116820180604052508101906103739190610b71565b10156103ab576040517ff4d678b800000000000000000000000000000000000000000000000000000000815260040160405180910390fd5b827f000000000000000000000000000000000000000000000000000000000000000073ffffffffffffffffffffffffffffffffffffffff1663dd62ed3e33306040518363ffffffff1660e01b8152600401610407929190610b9c565b602060405180830381865afa158015610422573d5f5f3e3d5ffd5b505050506040513d601f19601f820116820180604052508101906104469190610b71565b101561047e576040517f13be252b00000000000000000000000000000000000000000000000000000000815260040160405180910390fd5b5f7f000000000000000000000000000000000000000000000000000000000000000073ffffffffffffffffffffffffffffffffffffffff166323b872dd3330876040518463ffffffff1660e01b81526004016104dc93929190610bc3565b6020604051808303815f875af11580156104f8573d5f5f3e3d5ffd5b505050506040513d601f19601f8201168201806040525081019061051c9190610c22565b90508061055e576040517f08c379a000000000000000000000000000000000000000000000000000000000815260040161055590610ca7565b60405180910390fd5b60025f81548092919061057090610cf2565b91905055506002543373ffffffffffffffffffffffffffffffffffffffff167fc65d896fc2ca9fd58f5384f9b647c3ceb103fd3029e659645afa90f0a1520ef98686866040516105c293929190610d39565b60405180910390a3506105d3610809565b505050565b60035f9054906101000a900460ff1681565b6105f2610812565b6105fb5f610890565b565b610605610812565b600160035f6101000a81548160ff0219169083151502179055503373ffffffffffffffffffffffffffffffffffffffff167f80c6ef1d6f41faaf47f10c6da1ae6d45d4773d53d4c79bc1ef2737b10dbed57960405160405180910390a2565b5f60015f9054906101000a900473ffffffffffffffffffffffffffffffffffffffff16905090565b610694610812565b5f60035f6101000a81548160ff0219169083151502179055503373ffffffffffffffffffffffffffffffffffffffff167fa668d29cf81d3acc05e4a35a5bf898bb2c919fc7a4366e536bbd43522cb670f060405160405180910390a2565b60025481565b5f60035f9054906101000a900460ff16905090565b5f600254905090565b61071e610812565b5f73ffffffffffffffffffffffffffffffffffffffff168173ffffffffffffffffffffffffffffffffffffffff160361078c576040517f08c379a000000000000000000000000000000000000000000000000000000000815260040161078390610dde565b60405180910390fd5b61079581610890565b50565b7f000000000000000000000000000000000000000000000000000000000000000081565b60025f5403610800576040517f08c379a00000000000000000000000000000000000000000000000000000000081526004016107f790610e46565b60405180910390fd5b60025f81905550565b60015f81905550565b61081a610953565b73ffffffffffffffffffffffffffffffffffffffff16610838610664565b73ffffffffffffffffffffffffffffffffffffffff161461088e576040517f08c379a000000000000000000000000000000000000000000000000000000000815260040161088590610eae565b60405180910390fd5b565b5f60015f9054906101000a900473ffffffffffffffffffffffffffffffffffffffff1690508160015f6101000a81548173ffffffffffffffffffffffffffffffffffffffff021916908373ffffffffffffffffffffffffffffffffffffffff1602179055508173ffffffffffffffffffffffffffffffffffffffff168173ffffffffffffffffffffffffffffffffffffffff167f8be0079c531659141344cd1fd0a4f28419497f9722a3daafe3b4186f6b6457e060405160405180910390a35050565b5f33905090565b5f5ffd5b5f819050919050565b6109708161095e565b811461097a575f5ffd5b50565b5f8135905061098b81610967565b92915050565b5f73ffffffffffffffffffffffffffffffffffffffff82169050919050565b5f6109ba82610991565b9050919050565b6109ca816109b0565b81146109d4575f5ffd5b50565b5f813590506109e5816109c1565b92915050565b5f5f5f60608486031215610a0257610a0161095a565b5b5f610a0f8682870161097d565b9350506020610a20868287016109d7565b9250506040610a318682870161097d565b9150509250925092565b5f8115159050919050565b610a4f81610a3b565b82525050565b5f602082019050610a685f830184610a46565b92915050565b610a77816109b0565b82525050565b5f602082019050610a905f830184610a6e565b92915050565b610a9f8161095e565b82525050565b5f602082019050610ab85f830184610a96565b92915050565b5f60208284031215610ad357610ad261095a565b5b5f610ae0848285016109d7565b91505092915050565b5f819050919050565b5f610b0c610b07610b0284610991565b610ae9565b610991565b9050919050565b5f610b1d82610af2565b9050919050565b5f610b2e82610b13565b9050919050565b610b3e81610b24565b82525050565b5f602082019050610b575f830184610b35565b92915050565b5f81519050610b6b81610967565b92915050565b5f60208284031215610b8657610b8561095a565b5b5f610b9384828501610b5d565b91505092915050565b5f604082019050610baf5f830185610a6e565b610bbc6020830184610a6e565b9392505050565b5f606082019050610bd65f830186610a6e565b610be36020830185610a6e565b610bf06040830184610a96565b949350505050565b610c0181610a3b565b8114610c0b575f5ffd5b50565b5f81519050610c1c81610bf8565b92915050565b5f60208284031215610c3757610c3661095a565b5b5f610c4484828501610c0e565b91505092915050565b5f82825260208201905092915050565b7f546f6b656e207472616e73666572206661696c656400000000000000000000005f82015250565b5f610c91601583610c4d565b9150610c9c82610c5d565b602082019050919050565b5f6020820190508181035f830152610cbe81610c85565b9050919050565b7f4e487b71000000000000000000000000000000000000000000000000000000005f52601160045260245ffd5b5f610cfc8261095e565b91507fffffffffffffffffffffffffffffffffffffffffffffffffffffffffffffffff8203610d2e57610d2d610cc5565b5b600182019050919050565b5f606082019050610d4c5f830186610a96565b610d596020830185610a6e565b610d666040830184610a96565b949350505050565b7f4f776e61626c653a206e6577206f776e657220697320746865207a65726f20615f8201527f6464726573730000000000000000000000000000000000000000000000000000602082015250565b5f610dc8602683610c4d565b9150610dd382610d6e565b604082019050919050565b5f6020820190508181035f830152610df581610dbc565b9050919050565b7f5265656e7472616e637947756172643a207265656e7472616e742063616c6c005f82015250565b5f610e30601f83610c4d565b9150610e3b82610dfc565b602082019050919050565b5f6020820190508181035f830152610e5d81610e24565b9050919050565b7f4f776e61626c653a2063616c6c6572206973206e6f7420746865206f776e65725f82015250565b5f610e98602083610c4d565b9150610ea382610e64565b602082019050919050565b5f6020820190508181035f830152610ec581610e8c565b905091905056fea264697066735822122020b6f70528d923e78dbb99110558d9458ee0aa46ab94b4a5f39f7a533352466164736f6c634300081e0033","linkReferences":{}},"methodIdentifiers":{"getNonce()":"d087d288","isPaused()":"b187bd26","lockTokens(uint256,address,uint256)":"154b3db0","nonce()":"affed0e0","owner()":"8da5cb5b","pauseBridge()":"7dd0480f","paused()":"5c975abb","renounceOwnership()":"715018a6","token()":"fc0c546a","transferOwnership(address)":"f2fde38b","unpauseBridge()":"a82f143c"},"id":25}